:1009C30020636F756E746572303A00636F756E7471
:0509D3006572313A00DD
:10096D00E4FDFCC3ED9FEC9E5015E4FBFA0BBB00C0
:0F097D00010ABA04F8BBFBF50DBD00010C80E4C4
:01098C002248
:0A0A0200E4F580F590F5A0F5B022B0
:0F09D800D287C2A7D2A6C2A5D2A530870280F7C8
:0109E70022ED
:0E09E8001209D88F80D2A5C2A7C2A6C2A5222E
:0F098D007E00CFCDCFCECCCE120819EF2430FF95
:0E099C001209D88F80D2A5D2A7C2A6C2A5226A
:1009AA007F381209E87F0F1209E87F061209E87FEB
:0909BA00011209E87F1C0209E8A2
:100948008B088A09890AAB08AA09A90A1208006053
:1009580013050AE50A7002050914F9120800FF12C6
:05096800099C80E22261
:1008A400120A021209AA758944E4F58BF58DF58ABA
:1008B400F58CD28ED28C7F011209E87BFF7A0979FC
:1008C400C3120948858C83858A82AF82AE8312085D
:1008D400F97FC01209E87BFF7A0979CE12094885AD
:1008E4008D83858B82AF82AE831208F97F647E008C
:0508F40012096D80C136
:1008F900AB07AA067C277D101209957C277D10AFCE
:1009090003AE021208197E037FE812098F7C037D6A
:10091900E8AF03AE021208197F6412098D7C007DCD
:1009290064AF03AE021208197F0A12098DAE02AF35
:0F093900037C007D0A120819ED2430FF02099C8F
:030000000209F6FC
:0C09F600787FE4F6D8FD75810A0208A4A1
:10080000BB010689828A83E0225002E722BBFE02F6
:09081000E32289828A83E4932229
:10081900C2D5EC30E709B2D5E4C39DFDE49CFCEEFA
:1008290030E715B2D5E4C39FFFE49EFE12084FC31B
:10083900E49DFDE49CFC800312084F30D507C3E416
:060849009FFFE49EFE2269
:10084F00BC000BBE0029EF8DF084FFADF022E4CC8D
:10085F00F875F008EF2FFFEE33FEEC33FCEE9DEC56
:10086F00984005FCEE9DFE0FD5F0E9E4CEFD22ED9C
:10087F00F8F5F0EE8420D21CFEADF075F008EF2FE6
:10088F00FFED33FD4007985006D5F0F222C398FDD7
:05089F000FD5F0EA2274
:00000001FF
